{
    "contractName": "StorageFactory",
    "abi": [
        {
            "inputs": [],
            "name": "createSimpleStorageContract",
            "outputs": [],
            "stateMutability": "nonpayable",
            "type": "function"
        }
    ],
    "bytecode": "6080604052348015600f57600080fd5b50606580601d6000396000f3fe6080604052348015600f57600080fd5b506004361060285760003560e01c80631dda654114602d575b600080fd5b00fea2646970667358221220f4dc13ee8f3eed1d041589c6cfb21cabae0a82282d38a9e94bac2ff57a36908964736f6c63430008080033",
    "sourcePath": "/Users/raafatmhanna/Desktop/Remix/contracts/StorageFactory.sol",
    "compiler": {
        "name": "solc",
        "version": "0.8.8+commit.dddeac2f"
    },
    "functionHashes": {
        "createSimpleStorageContract()": "1dda6541"
    },
    "gasEstimates": {
        "creation": {
            "codeDepositCost": "20200",
            "executionCost": "75",
            "totalCost": "20275"
        },
        "external": {
            "createSimpleStorageContract()": "98"
        }
    }
}